:03000000020A3CB5
:0C0A3C00787FE4F6D8FD758138020A834B
:100BF6000A09C0F9A4B0999282F880900631804023
:100C060010080201011400011900011A00012E004A
:100C1600013700011800081C000000000000000059
:0E0C260008240000000000000000021600007C
:100C3500120CFD120AC8E514B401158508138515B3
:100C45001B852C2D120BB5851308851B15852D2CA1
:100C5500E514B402DE852E1385371B85182D120B7E
:0C0C6500B585132E851B37852D1880C720
:100CFD0075890175A887758C4C758AD0C288C28A92
:080D0D0075B802D28CC29722D6
:1008DA0075A0247580BF120CA1E51A700CE519D316
:1008EA0094094005E4F5A080038531A07409251C0C
:1008FA00120C9DE51A700CE519D394094005E4F52C
:10090A00A080038532A07409251D120C9DE51AB436
:10091A00010CE519D394094005E4F5A08003853359
:10092A00A07409251E120C9DE51AB4010CE519D311
:10093A0094094005E4F5A080038534A07409251FB5
:10094A00120C9DE51AB4020CE519D394094005E48A
:10095A00F5A080038535A074092520120C9DE51A9F
:10096A00B4020CE519D394094005E4F5A080038587
:10097A0036A074092521F8E6F5807F057E00020C71
:01098A00A5C7
:10098B0075A0247580BF120CA1E51A700CE519D364
:10099B0094094005E4F5A080038531A07409252452
:1009AB00120C9DE51A700CE519D394094005E4F57A
:1009BB00A080038532A074092525120C9DE51AB47D
:1009CB00010CE519D394094005E4F5A080038533A8
:1009DB00A074092526120C9DE51AB4010CE519D358
:1009EB0094094005E4F5A080038534A074092527FC
:1009FB00120C9DE51AB4020CE519D394094005E4D9
:100A0B00F5A080038535A074092528120C9DE51AE5
:100A1B00B4020CE519D394094005E4F5A0800385D5
:100A2B0036A074092529F8E6F5807F057E00020CB7
:010A3B00A515
:100C7100E4F52F7431252FF8E6F5A0741C252FF823
:100C8100E62409120C9D052FE52FC3940640E47557
:0C0C9100A0247580BF7F057E00020CA52A
:100BB50020B53D120CA120B534E51A14601514605A
:100BC50020240270280513E513D3943B401FE4F558
:100BD50013801A051BE51BD3943B4011E4F51B80DC
:100BE5000C052DE52DD394184003E4F52D30B5FD06
:010BF50022DD
:03000300020B1CD1
:100B1C00C0E0C0F0C083C082C0D075D000C000C09F
:100B2C0001C002C003C004C005C006C007120CA15E
:100B3C0020B20D0514751A00E514B40303751400E6
:100B4C0030B2FDD007D006D005D004D003D002D0EF
:0E0B5C0001D000D0D0D082D083D0F0D0E032D3
:03000B00020800E8
:10080000C0E0C0F0C083C082C0D075D000C000C0BE
:1008100001C002C003C004C005C006C007758C4CEF
:10082000758AD00519E519B4140F751900E514641B
:10083000016003120CC3120CE2E514B40235E52E7C
:1008400075F00A8485F024E52E75F00A84F525E517
:100850003775F00A8485F026E53775F00A84F527A8
:10086000E51875F00A8485F028E51875F00A84F516
:10087000298033E50875F00A8485F01CE50875F0D9
:100880000A84F51DE51575F00A8485F01EE51575D9
:10089000F00A84F51FE52C75F00A8485F020E52C1C
:1008A00075F00A84F521E51414600C14600E24021E
:1008B000700D120C7180081208DA800312098BD0B7
:1008C00007D006D005D004D003D002D001D000D08C
:0A08D000D0D082D083D0F0D0E03207
:03001300020B6A73
:100B6A00C0E0C0F0C083C082C0D075D000C000C051
:100B7A0001C002C003C004C005C006C007120CA110
:100B8A0020B30A051AE51AB40303751A0030B3FD37
:100B9A00D007D006D005D004D003D002D001D000AF
:0B0BAA00D0D0D082D083D0F0D0E03259
:100CE200E52CB51815E515B53710E508B52E0BD26C
:0B0CF200977F107E27120CA5C29722EE
:100AC800C297AF17AE16120CA5D297C374509517DC
:100AD800FFE49516FE120CA50517E517700205161A
:100AE80064504516702DD3E5179400E51694004020
:100AF80022C297AF17AE16120CA5D297C3745095A1
:100B080017FFE49516FE120CA5E517151770D715F3
:040B18001680D3224E
:100CC3000508E508B43C050515E4F508E515B43C4D
:0F0CD30005052CE4F515E52CB41803E4F52C22E7
:080C9D00F8E6F5807F057E00FA
:100CA500D3EF9400EE94004007EF1F70F31E80F021
:0D0CB5007F6E7E00EF1F70011EEF4E70F786
:010CC200220F
:100A4800020C35E493A3F8E493A34003F68001F283
:100A580008DFF48029E493A3F85407240CC8C333AF
:100A6800C4540F4420C8834004F456800146F6DF7E
:100A7800E4800B0102040810204080900BF6E47E0D
:100A8800019360BCA3FF543F30E509541FFEE49373
:100A9800A360010ECF54C025E060A840B8E493A33A
:100AA800FAE493A3F8E493A3C8C582C8CAC583CA65
:100AB800F0A3C8C582C8CAC583CADFE9DEE780BE1D
:010C340000BF
:00000001FF
