:03000000020A945D
:0C0A9400787FE4F6D8FD758138020ADB9B
:03000300020B7479
:100B7400C0E0C0F0C083C082C0D075D000C000C047
:100B840001C002C003C004C005C006C0077F057EC3
:100B940000120D2820B20D0514751A00E514B403D3
:100BA4000375140030B2FDD007D006D005D004D0B0
:100BB40003D002D001D000D0D0D082D083D0F0D0E6
:020BC400E0321D
:03000B000209BA2D
:1009BA00C0E0C0F0C083C082C0D075D000C000C003
:1009CA0001C002C003C004C005C006C007758C4C34
:1009DA00758AD00519E519B4140F751900E5146460
:1009EA00016003120D09120D46E514B40235E52E15
:1009FA0075F00A8485F024E52E75F00A84F525E55C
:100A0A003775F00A8485F026E53775F00A84F527EC
:100A1A00E51875F00A8485F028E51875F00A84F55A
:100A2A00298033E50875F00A8485F01CE50875F01D
:100A3A000A84F51DE51575F00A8485F01EE515751D
:100A4A00F00A84F51FE52C75F00A8485F020E52C60
:100A5A0075F00A84F521E51414600C14600E240262
:100A6A00700D120CD5800812080080031208DDD020
:100A7A0007D006D005D004D003D002D001D000D0D0
:0A0A8A00D0D082D083D0F0D0E0324B
:03001300020BC617
:100BC600C0E0C0F0C083C082C0D075D000C000C0F5
:100BD60001C002C003C004C005C006C0077F057E71
:100BE60000120D2820B30A051AE51AB40303751A74
:100BF6000030B3FDD007D006D005D004D003D00214
:0F0C0600D001D000D0D0D082D083D0F0D0E03257
:100C5A000A09C0F9A4B0999282F8809006318040BE
:100C6A0010080201011400011900011A00012E00E6
:100C7A00013700011800081C0000000000000000F5
:0E0C8A00082400000000000000000216000018
:100C9900120D61120B20E514B40115850813851591
:100CA9001B852C2D120C15851308851B15852D2CDC
:100CB900E514B402DE852E1385371B85182D120C19
:0C0CC9001585132E851B37852D1880C75C
:100C150020B5417F057E00120D2820B534E51A1454
:100C25006015146020240270280513E513D3943B46
:100C3500401FE4F513801A051BE51BD3943B4011B7
:100C4500E4F51B800C052DE52DD394184003E4F540
:050C55002D30B5FD2269
:100D4600E52CB51815E515B53710E508B52E0BD207
:0B0D5600977F107E27120D28C2972205
:100D2800D3EF9400EE94004007EF1F70F31E80F09D
:0D0D38007F6E7E00EF1F70011EEF4E70F702
:010D4500228B
:1008000075A0247580BF7F057E00120D28E51A7043
:100810000CE519D394094005E4F5A080038531A0C7
:100820007409251CF8E6F5807F057E00120D28E589
:100830001A700CE519D394094005E4F5A0800385EE
:1008400032A07409251DF8E6F5807F057E00120DA3
:1008500028E51AB4010CE519D394094005E4F5A084
:1008600080038533A07409251EF8E6F5807F057E98
:1008700000120D28E51AB4010CE519D394094005BE
:10088000E4F5A080038534A07409251FF8E6F580FF
:100890007F057E00120D28E51AB4020CE519D394E9
:1008A000094005E4F5A080038535A074092520F8EA
:1008B000E6F5807F057E00120D28E51AB4020CE5EE
:1008C00019D394094005E4F5A080038536A0740986
:0D08D0002521F8E6F5807F057E00020D2849
:1008DD0075A0247580BF7F057E00120D28E51A7066
:1008ED000CE519D394094005E4F5A080038531A0EA
:1008FD0074092524F8E6F5807F057E00120D28E5A4
:10090D001A700CE519D394094005E4F5A080038510
:10091D0032A074092525F8E6F5807F057E00120DBD
:10092D0028E51AB4010CE519D394094005E4F5A0A6
:10093D0080038533A074092526F8E6F5807F057EB2
:10094D0000120D28E51AB4010CE519D394094005E0
:10095D00E4F5A080038534A074092527F8E6F58019
:10096D007F057E00120D28E51AB4020CE519D3940B
:10097D00094005E4F5A080038535A074092528F804
:10098D00E6F5807F057E00120D28E51AB4020CE510
:10099D0019D394094005E4F5A080038536A07409A8
:0D09AD002529F8E6F5807F057E00020D2863
:100CD500E4F52F7431252FF8E6F5A0741C252FF8BF
:100CE500E62409F8E6F5807F057E00120D28052F1C
:100CF500E52FC3940640DC75A0247580BF7F057E73
:040D050000020D28B3
:100D610075890175A887758C4C758AD0C288C28A2D
:080D710075B802D28CC2972272
:100D09000508E508B43C050515E4F508E515B43C06
:0F0D190005052CE4F515E52CB41803E4F52C22A0
:100B2000C297AF17AE16120D28D297C374509517FF
:100B3000FFE49516FE120D280517E517700205163D
:100B400064504516702DD3E5179400E516940040C7
:100B500022C297AF17AE16120D28D297C3745095C4
:100B600017FFE49516FE120D28E517151770D71517
:040B70001680D322F6
:100AA000020C99E493A3F8E493A34003F68001F2C7
:100AB00008DFF48029E493A3F85407240CC8C33357
:100AC000C4540F4420C8834004F456800146F6DF26
:100AD000E4800B0102040810204080900C5AE47E50
:100AE000019360BCA3FF543F30E509541FFEE4931B
:100AF000A360010ECF54C025E060A840B8E493A3E2
:100B0000FAE493A3F8E493A3C8C582C8CAC583CA0C
:100B1000F0A3C8C582C8CAC583CADFE9DEE780BEC4
:010C9800005B
:00000001FF
